{
  "contractName": "RedePostos",
  "abi": [
    {
      "inputs": [],
      "stateMutability": "nonpayable",
      "type": "constructor"
    },
    {
      "inputs": [
        {
          "internalType": "uint256",
          "name": "quantidadeSolicitada",
          "type": "uint256"
        },
        {
          "internalType": "uint256",
          "name": "quantidadeDisponivel",
          "type": "uint256"
        }
      ],
      "name": "EstoqueInsuficiente",
      "type": "error"
    },
    {
      "inputs": [
        {
          "internalType": "uint256",
          "name": "saldoNecessario",
          "type": "uint256"
        },
        {
          "internalType": "uint256",
          "name": "saldoDisponivel",
          "type": "uint256"
        }
      ],
      "name": "SaldoInsuficiente",
      "type": "error"
    },
    {
      "anonymous": false,
      "inputs": [
        {
          "indexed": false,
          "internalType": "address",
          "name": "enderecoPosto",
          "type": "address"
        },
        {
          "indexed": false,
          "internalType": "uint256",
          "name": "quantidadeLiberada",
          "type": "uint256"
        },
        {
          "indexed": false,
          "internalType": "uint256",
          "name": "valorTotal",
          "type": "uint256"
        }
      ],
      "name": "AbastecimentoLiberado",
      "type": "event"
    },
    {
      "anonymous": false,
      "inputs": [
        {
          "indexed": false,
          "internalType": "address",
          "name": "enderecoPosto",
          "type": "address"
        },
        {
          "indexed": false,
          "internalType": "uint256",
          "name": "quantidadeReposta",
          "type": "uint256"
        }
      ],
      "name": "EstoqueReposto",
      "type": "event"
    },
    {
      "anonymous": false,
      "inputs": [
        {
          "indexed": false,
          "internalType": "address",
          "name": "enderecoCliente",
          "type": "address"
        },
        {
          "indexed": false,
          "internalType": "uint256",
          "name": "idMelhorPosto",
          "type": "uint256"
        },
        {
          "indexed": false,
          "internalType": "uint256",
          "name": "melhorValor",
          "type": "uint256"
        },
        {
          "indexed": false,
          "internalType": "address",
          "name": "enderecoPosto",
          "type": "address"
        }
      ],
      "name": "MelhorOfertaEncontrada",
      "type": "event"
    },
    {
      "anonymous": false,
      "inputs": [
        {
          "indexed": false,
          "internalType": "uint256",
          "name": "id",
          "type": "uint256"
        }
      ],
      "name": "NovoIdDePosto",
      "type": "event"
    },
    {
      "anonymous": false,
      "inputs": [
        {
          "indexed": false,
          "internalType": "address",
          "name": "destinatario",
          "type": "address"
        },
        {
          "indexed": false,
          "internalType": "uint256",
          "name": "quantidade",
          "type": "uint256"
        }
      ],
      "name": "NovoSaldo",
      "type": "event"
    },
    {
      "inputs": [],
      "name": "criador",
      "outputs": [
        {
          "internalType": "address",
          "name": "",
          "type": "address"
        }
      ],
      "stateMutability": "view",
      "type": "function"
    },
    {
      "inputs": [
        {
          "internalType": "uint256",
          "name": "",
          "type": "uint256"
        }
      ],
      "name": "postos",
      "outputs": [
        {
          "internalType": "uint256",
          "name": "id",
          "type": "uint256"
        },
        {
          "internalType": "uint256",
          "name": "coordX",
          "type": "uint256"
        },
        {
          "internalType": "uint256",
          "name": "coordY",
          "type": "uint256"
        },
        {
          "internalType": "uint256",
          "name": "valor",
          "type": "uint256"
        },
        {
          "internalType": "uint256",
          "name": "estoque",
          "type": "uint256"
        },
        {
          "internalType": "address",
          "name": "endereco",
          "type": "address"
        }
      ],
      "stateMutability": "view",
      "type": "function"
    },
    {
      "inputs": [
        {
          "internalType": "address",
          "name": "",
          "type": "address"
        }
      ],
      "name": "saldos",
      "outputs": [
        {
          "internalType": "uint256",
          "name": "",
          "type": "uint256"
        }
      ],
      "stateMutability": "view",
      "type": "function"
    },
    {
      "inputs": [
        {
          "internalType": "address",
          "name": "destinatario",
          "type": "address"
        },
        {
          "internalType": "uint256",
          "name": "quantidade",
          "type": "uint256"
        }
      ],
      "name": "adicionarSaldo",
      "outputs": [],
      "stateMutability": "nonpayable",
      "type": "function"
    },
    {
      "inputs": [
        {
          "internalType": "uint256",
          "name": "coordX",
          "type": "uint256"
        },
        {
          "internalType": "uint256",
          "name": "coordY",
          "type": "uint256"
        },
        {
          "internalType": "uint256",
          "name": "valor",
          "type": "uint256"
        },
        {
          "internalType": "uint256",
          "name": "estoque",
          "type": "uint256"
        }
      ],
      "name": "registrarPosto",
      "outputs": [
        {
          "internalType": "uint256",
          "name": "",
          "type": "uint256"
        }
      ],
      "stateMutability": "nonpayable",
      "type": "function"
    },
    {
      "inputs": [
        {
          "internalType": "uint256",
          "name": "coordXDoCliente",
          "type": "uint256"
        },
        {
          "internalType": "uint256",
          "name": "coordYDoCliente",
          "type": "uint256"
        },
        {
          "internalType": "uint256",
          "name": "raioDesejado",
          "type": "uint256"
        }
      ],
      "name": "localizarMelhorOferta",
      "outputs": [
        {
          "internalType": "uint256",
          "name": "",
          "type": "uint256"
        }
      ],
      "stateMutability": "nonpayable",
      "type": "function"
    },
    {
      "inputs": [
        {
          "internalType": "uint256",
          "name": "idPosto",
          "type": "uint256"
        },
        {
          "internalType": "uint256",
          "name": "quantidade",
          "type": "uint256"
        }
      ],
      "name": "reporEstoque",
      "outputs": [],
      "stateMutability": "nonpayable",
      "type": "function"
    },
    {
      "inputs": [
        {
          "internalType": "uint256",
          "name": "idPosto",
          "type": "uint256"
        },
        {
          "internalType": "uint256",
          "name": "quantidadeSolicitada",
          "type": "uint256"
        }
      ],
      "name": "comprarCombustivel",
      "outputs": [],
      "stateMutability": "nonpayable",
      "type": "function"
    }
  ],
  "bytecode": "0x608060405234801561001057600080fd5b5033600360006101000a81548173ffffffffffffffffffffffffffffffffffffffff021916908373ffffffffffffffffffffffffffffffffffffffff1602179055506111de806100616000396000f3fe608060405234801561001057600080fd5b50600436106100885760003560e01c80638392d16b1161005b5780638392d16b14610118578063c68c061214610148578063e618104d14610178578063f525f95d146101a857610088565b8063041c797c1461008d5780630ca2f2a0146100ab5780632ab50969146100c757806366e1d433146100fc575b600080fd5b6100956101c4565b6040516100a29190610c09565b60405180910390f35b6100c560048036038101906100c09190610c5f565b6101ea565b005b6100e160048036038101906100dc9190610c9f565b6102f8565b6040516100f396959493929190610cdb565b60405180910390f35b61011660048036038101906101119190610c5f565b610354565b005b610132600480360381019061012d9190610d3c565b610793565b60405161013f9190610da3565b60405180910390f35b610162600480360381019061015d9190610dea565b6108c1565b60405161016f9190610da3565b60405180910390f35b610192600480360381019061018d9190610e17565b6108d9565b60405161019f9190610da3565b60405180910390f35b6101c260048036038101906101bd9190610e6a565b610a66565b005b600360009054906101000a900473ffffffffffffffffffffffffffffffffffffffff1681565b6001600083815260200190815260200160002060050160009054906101000a900473ffffffffffffffffffffffffffffffffffffffff1673ffffffffffffffffffffffffffffffffffffffff163373ffffffffffffffffffffffffffffffffffffffff161461028e576040517f08c379a000000000000000000000000000000000000000000000000000000000815260040161028590610f2d565b60405180910390fd5b806001600084815260200190815260200160002060040160008282546102b49190610f7c565b925050819055507fb7ec46d77e79639d4745e674a036a722deeccdeb5ab6444f3d5554a616da039c33826040516102ec929190610fb0565b60405180910390a15050565b60016020528060005260406000206000915090508060000154908060010154908060020154908060030154908060040154908060050160009054906101000a900473ffffffffffffffffffffffffffffffffffffffff16905086565b80600160008481526020019081526020016000206004015410156103c7578060016000848152602001908152602001600020600401546040517fb78e5aee0000000000000000000000000000000000000000000000000000000081526004016103be929190610fd9565b60405180910390fd5b60008160016000858152602001908152602001600020600301546103eb9190611002565b905080600260003373ffffffffffffffffffffffffffffffffffffffff1673ffffffffffffffffffffffffffffffffffffffff1681526020019081526020016000205410156104b25780600260003373ffffffffffffffffffffffffffffffffffffffff1673ffffffffffffffffffffffffffffffffffffffff168152602001908152602001600020546040517f9d8b89ca0000000000000000000000000000000000000000000000000000000081526004016104a9929190610fd9565b60405180910390fd5b816001600085815260200190815260200160002060040160008282546104d89190611044565b9250508190555080600260003373ffffffffffffffffffffffffffffffffffffffff1673ffffffffffffffffffffffffffffffffffffffff168152602001908152602001600020600082825461052e9190611044565b9250508190555080600260006001600087815260200190815260200160002060050160009054906101000a900473ffffffffffffffffffffffffffffffffffffffff1673ffffffffffffffffffffffffffffffffffffffff1673ffffffffffffffffffffffffffffffffffffffff16815260200190815260200160002060008282546105ba9190610f7c565b925050819055507f98d2479ec7a19252e0538a6f611bb028391e148a7f574dff5fee951cfe1c80b66001600085815260200190815260200160002060050160009054906101000a900473ffffffffffffffffffffffffffffffffffffffff16838360405161062a93929190611078565b60405180910390a17f8db14d19f4aeace40c5d6356b107ac04877d1ae5f2b64202b17a86ed470b438a33600260003373ffffffffffffffffffffffffffffffffffffffff1673ffffffffffffffffffffffffffffffffffffffff168152602001908152602001600020546040516106a2929190610fb0565b60405180910390a17f8db14d19f4aeace40c5d6356b107ac04877d1ae5f2b64202b17a86ed470b438a6001600085815260200190815260200160002060050160009054906101000a900473ffffffffffffffffffffffffffffffffffffffff16600260006001600088815260200190815260200160002060050160009054906101000a900473ffffffffffffffffffffffffffffffffffffffff1673ffffffffffffffffffffffffffffffffffffffff1673ffffffffffffffffffffffffffffffffffffffff16815260200190815260200160002054604051610786929190610fb0565b60405180910390a1505050565b60008060008081546107a4906110af565b91905081905590506040518060c001604052808281526020018781526020018681526020018581526020018481526020013373ffffffffffffffffffffffffffffffffffffffff1681525060016000838152602001908152602001600020600082015181600001556020820151816001015560408201518160020155606082015181600301556080820151816004015560a08201518160050160006101000a81548173ffffffffffffffffffffffffffffffffffffffff021916908373ffffffffffffffffffffffffffffffffffffffff1602179055509050507f5d52b01640c0753f887e0270136d5888b6d6eacfc6f26409c9459b3b5c040a69816040516108ad9190610da3565b60405180910390a180915050949350505050565b60026020528060005260406000206000915090505481565b60008060009050600080600190505b60005481116109e65760008760016000848152602001908152602001600020600101546109159190611044565b9050600087600160008581526020019081526020016000206002015461093b9190611044565b905086876109499190611002565b81826109559190611002565b83846109619190611002565b61096b9190610f7c565b11158015610999575060008514806109985750600160008481526020019081526020016000206003015484115b5b156109d15760016000848152602001908152602001600020600001549450600160008481526020019081526020016000206003015493505b505080806109de906110af565b9150506108e8565b507f1f50b284eb2d4250fb5c962376fb6aa670422a12307c2ccfff27950e3209ecd83383836001600087815260200190815260200160002060050160009054906101000a900473ffffffffffffffffffffffffffffffffffffffff16604051610a5294939291906110f7565b60405180910390a181925050509392505050565b600360009054906101000a900473ffffffffffffffffffffffffffffffffffffffff1673ffffffffffffffffffffffffffffffffffffffff163373ffffffffffffffffffffffffffffffffffffffff1614610af6576040517f08c379a0000000000000000000000000000000000000000000000000000000008152600401610aed90611188565b60405180910390fd5b80600260008473ffffffffffffffffffffffffffffffffffffffff1673ffffffffffffffffffffffffffffffffffffffff1681526020019081526020016000206000828254610b459190610f7c565b925050819055507f8db14d19f4aeace40c5d6356b107ac04877d1ae5f2b64202b17a86ed470b438a82600260008573ffffffffffffffffffffffffffffffffffffffff1673ffffffffffffffffffffffffffffffffffffffff16815260200190815260200160002054604051610bbc929190610fb0565b60405180910390a15050565b600073ffffffffffffffffffffffffffffffffffffffff82169050919050565b6000610bf382610bc8565b9050919050565b610c0381610be8565b82525050565b6000602082019050610c1e6000830184610bfa565b92915050565b600080fd5b6000819050919050565b610c3c81610c29565b8114610c4757600080fd5b50565b600081359050610c5981610c33565b92915050565b60008060408385031215610c7657610c75610c24565b5b6000610c8485828601610c4a565b9250506020610c9585828601610c4a565b9150509250929050565b600060208284031215610cb557610cb4610c24565b5b6000610cc384828501610c4a565b91505092915050565b610cd581610c29565b82525050565b600060c082019050610cf06000830189610ccc565b610cfd6020830188610ccc565b610d0a6040830187610ccc565b610d176060830186610ccc565b610d246080830185610ccc565b610d3160a0830184610bfa565b979650505050505050565b60008060008060808587031215610d5657610d55610c24565b5b6000610d6487828801610c4a565b9450506020610d7587828801610c4a565b9350506040610d8687828801610c4a565b9250506060610d9787828801610c4a565b91505092959194509250565b6000602082019050610db86000830184610ccc565b92915050565b610dc781610be8565b8114610dd257600080fd5b50565b600081359050610de481610dbe565b92915050565b600060208284031215610e0057610dff610c24565b5b6000610e0e84828501610dd5565b91505092915050565b600080600060608486031215610e3057610e2f610c24565b5b6000610e3e86828701610c4a565b9350506020610e4f86828701610c4a565b9250506040610e6086828701610c4a565b9150509250925092565b60008060408385031215610e8157610e80610c24565b5b6000610e8f85828601610dd5565b9250506020610ea085828601610c4a565b9150509250929050565b600082825260208201905092915050565b7f66756e63696f6e616c69646164652061636573736976656c206170656e61732060008201527f616f20706f73746f000000000000000000000000000000000000000000000000602082015250565b6000610f17602883610eaa565b9150610f2282610ebb565b604082019050919050565b60006020820190508181036000830152610f4681610f0a565b9050919050565b7f4e487b7100000000000000000000000000000000000000000000000000000000600052601160045260246000fd5b6000610f8782610c29565b9150610f9283610c29565b9250828201905080821115610faa57610fa9610f4d565b5b92915050565b6000604082019050610fc56000830185610bfa565b610fd26020830184610ccc565b9392505050565b6000604082019050610fee6000830185610ccc565b610ffb6020830184610ccc565b9392505050565b600061100d82610c29565b915061101883610c29565b925082820261102681610c29565b9150828204841483151761103d5761103c610f4d565b5b5092915050565b600061104f82610c29565b915061105a83610c29565b925082820390508181111561107257611071610f4d565b5b92915050565b600060608201905061108d6000830186610bfa565b61109a6020830185610ccc565b6110a76040830184610ccc565b949350505050565b60006110ba82610c29565b91507fffffffffffffffffffffffffffffffffffffffffffffffffffffffffffffffff82036110ec576110eb610f4d565b5b600182019050919050565b600060808201905061110c6000830187610bfa565b6111196020830186610ccc565b6111266040830185610ccc565b6111336060830184610bfa565b95945050505050565b7f6170656e61732063726961646f72000000000000000000000000000000000000600082015250565b6000611172600e83610eaa565b915061117d8261113c565b602082019050919050565b600060208201905081810360008301526111a181611165565b905091905056fea26469706673582212208864e9807b6a94189ae53f0873b5b9f4696d5bff0a5dd89f6dfaba57751a483d64736f6c63430008110033",
  "immutableReferences": {},
  "source": "// SPDX-License-Identifier: MIT\npragma solidity >=0.4.22 <0.9.0;\n\ncontract RedePostos {\n  struct Posto {\n    uint id;\n    uint coordX;\n    uint coordY;\n    uint valor;       // em centavos, por mililitro\n    uint estoque;     // em mililitros\n    address endereco;\n  }\n\n  uint numeroPostos;\n  mapping(uint => Posto) public postos;\n  mapping(address => uint) public saldos;\n  address public criador;\n\n  error EstoqueInsuficiente(uint quantidadeSolicitada, uint quantidadeDisponivel);\n  error SaldoInsuficiente(uint saldoNecessario, uint saldoDisponivel);\n\n  event AbastecimentoLiberado(address enderecoPosto, uint quantidadeLiberada, uint valorTotal);\n  event MelhorOfertaEncontrada(address enderecoCliente, uint idMelhorPosto, uint melhorValor, address enderecoPosto);\n  event EstoqueReposto(address enderecoPosto, uint quantidadeReposta);\n  event NovoSaldo (address destinatario, uint quantidade);\n  event NovoIdDePosto (uint id);\n\n  constructor() {\n      criador = msg.sender;\n  }\n\n  function adicionarSaldo(address destinatario, uint quantidade) public {\n      require(msg.sender == criador, \"apenas criador\");\n      saldos[destinatario] += quantidade;\n      emit NovoSaldo(destinatario, saldos[destinatario]);\n  }\n\n  function registrarPosto(uint coordX, uint coordY, uint valor, uint estoque) public returns(uint) {\n    uint novoIdDePosto = ++numeroPostos;\n\n    postos[novoIdDePosto] = Posto(\n        novoIdDePosto,\n        coordX,\n        coordY,\n        valor,\n        estoque,\n        msg.sender\n    );\n\n    emit NovoIdDePosto(novoIdDePosto);\n    return novoIdDePosto;\n}\n\n  function localizarMelhorOferta(uint coordXDoCliente, uint coordYDoCliente, uint raioDesejado) public returns(uint) {\n    uint idMelhorPosto = 0;\n    uint melhorValor = 0;\n\n    for (uint i = 1; i <= numeroPostos; i++) {\n        uint dx = postos[i].coordX - coordXDoCliente;\n        uint dy = postos[i].coordY - coordYDoCliente;\n        if (dx * dx + dy * dy <= raioDesejado * raioDesejado &&\n            (idMelhorPosto == 0 || melhorValor > postos[i].valor)) {\n                idMelhorPosto = postos[i].id;\n                melhorValor = postos[i].valor;\n        }\n    }\n\n    emit MelhorOfertaEncontrada(msg.sender, idMelhorPosto, melhorValor, postos[idMelhorPosto].endereco);\n\n    return idMelhorPosto;\n  }\n\n  function reporEstoque(uint idPosto, uint quantidade) public {\n      require(msg.sender == postos[idPosto].endereco, \"funcionalidade acessivel apenas ao posto\");\n      postos[idPosto].estoque += quantidade;\n\n      emit EstoqueReposto(msg.sender, quantidade);\n  }\n\n  function comprarCombustivel(uint idPosto, uint quantidadeSolicitada) public {\n    if (postos[idPosto].estoque < quantidadeSolicitada) {\n      revert EstoqueInsuficiente({\n          quantidadeSolicitada: quantidadeSolicitada,\n          quantidadeDisponivel: postos[idPosto].estoque\n      });\n    }\n\n    uint valorTotal = postos[idPosto].valor * quantidadeSolicitada;\n\n    if (saldos[msg.sender] < valorTotal) {\n      revert SaldoInsuficiente({\n          saldoNecessario: valorTotal,\n          saldoDisponivel: saldos[msg.sender]\n      });\n    }\n\n    postos[idPosto].estoque -= quantidadeSolicitada;\n    saldos[msg.sender] -= valorTotal;\n    saldos[postos[idPosto].endereco] += valorTotal;\n\n    // Liberar abastecimento\n    emit AbastecimentoLiberado(postos[idPosto].endereco, quantidadeSolicitada, valorTotal);\n    emit NovoSaldo(msg.sender, saldos[msg.sender]);\n    emit NovoSaldo(postos[idPosto].endereco, saldos[postos[idPosto].endereco]);\n  }\n\n}\n",
  "sourcePath": "/home/filipe/smart-postos/contracts/RedePostos.sol",
  "compiler": {
    "name": "solc",
    "version": "0.8.17+commit.8df45f5f.Emscripten.clang"
  },
  "schemaVersion": "3.4.10",
  "updatedAt": "2022-11-21T00:15:54.762Z",
  "devdoc": {
    "kind": "dev",
    "methods": {},
    "version": 1
  },
  "userdoc": {
    "kind": "user",
    "methods": {},
    "version": 1
  }
}