{
  "contractName": "RedePostos",
  "abi": [
    {
      "inputs": [],
      "stateMutability": "nonpayable",
      "type": "constructor"
    },
    {
      "inputs": [
        {
          "internalType": "uint256",
          "name": "quantidadeSolicitada",
          "type": "uint256"
        },
        {
          "internalType": "uint256",
          "name": "quantidadeDisponivel",
          "type": "uint256"
        }
      ],
      "name": "EstoqueInsuficiente",
      "type": "error"
    },
    {
      "inputs": [
        {
          "internalType": "uint256",
          "name": "saldoNecessario",
          "type": "uint256"
        },
        {
          "internalType": "uint256",
          "name": "saldoDisponivel",
          "type": "uint256"
        }
      ],
      "name": "SaldoInsuficiente",
      "type": "error"
    },
    {
      "anonymous": false,
      "inputs": [
        {
          "indexed": false,
          "internalType": "address",
          "name": "enderecoPosto",
          "type": "address"
        },
        {
          "indexed": false,
          "internalType": "uint256",
          "name": "quantidadeLiberada",
          "type": "uint256"
        },
        {
          "indexed": false,
          "internalType": "uint256",
          "name": "valorTotal",
          "type": "uint256"
        }
      ],
      "name": "AbastecimentoLiberado",
      "type": "event"
    },
    {
      "anonymous": false,
      "inputs": [
        {
          "indexed": false,
          "internalType": "address",
          "name": "enderecoPosto",
          "type": "address"
        },
        {
          "indexed": false,
          "internalType": "uint256",
          "name": "quantidadeReposta",
          "type": "uint256"
        }
      ],
      "name": "EstoqueReposto",
      "type": "event"
    },
    {
      "anonymous": false,
      "inputs": [
        {
          "indexed": false,
          "internalType": "address",
          "name": "enderecoCliente",
          "type": "address"
        },
        {
          "indexed": false,
          "internalType": "uint256",
          "name": "idMelhorPosto",
          "type": "uint256"
        },
        {
          "indexed": false,
          "internalType": "uint256",
          "name": "melhorValor",
          "type": "uint256"
        },
        {
          "indexed": false,
          "internalType": "address",
          "name": "enderecoPosto",
          "type": "address"
        }
      ],
      "name": "MelhorOfertaEncontrada",
      "type": "event"
    },
    {
      "anonymous": false,
      "inputs": [
        {
          "indexed": false,
          "internalType": "uint256",
          "name": "id",
          "type": "uint256"
        }
      ],
      "name": "NovoIdDePosto",
      "type": "event"
    },
    {
      "anonymous": false,
      "inputs": [
        {
          "indexed": false,
          "internalType": "address",
          "name": "destinatario",
          "type": "address"
        },
        {
          "indexed": false,
          "internalType": "uint256",
          "name": "quantidade",
          "type": "uint256"
        }
      ],
      "name": "NovoSaldo",
      "type": "event"
    },
    {
      "inputs": [],
      "name": "criador",
      "outputs": [
        {
          "internalType": "address",
          "name": "",
          "type": "address"
        }
      ],
      "stateMutability": "view",
      "type": "function",
      "constant": true
    },
    {
      "inputs": [
        {
          "internalType": "uint256",
          "name": "",
          "type": "uint256"
        }
      ],
      "name": "postos",
      "outputs": [
        {
          "internalType": "uint256",
          "name": "id",
          "type": "uint256"
        },
        {
          "internalType": "uint256",
          "name": "coordX",
          "type": "uint256"
        },
        {
          "internalType": "uint256",
          "name": "coordY",
          "type": "uint256"
        },
        {
          "internalType": "uint256",
          "name": "valor",
          "type": "uint256"
        },
        {
          "internalType": "uint256",
          "name": "estoque",
          "type": "uint256"
        },
        {
          "internalType": "address",
          "name": "endereco",
          "type": "address"
        }
      ],
      "stateMutability": "view",
      "type": "function",
      "constant": true
    },
    {
      "inputs": [
        {
          "internalType": "address",
          "name": "",
          "type": "address"
        }
      ],
      "name": "saldos",
      "outputs": [
        {
          "internalType": "uint256",
          "name": "",
          "type": "uint256"
        }
      ],
      "stateMutability": "view",
      "type": "function",
      "constant": true
    },
    {
      "inputs": [],
      "name": "digaOla",
      "outputs": [
        {
          "internalType": "string",
          "name": "",
          "type": "string"
        }
      ],
      "stateMutability": "pure",
      "type": "function",
      "constant": true
    },
    {
      "inputs": [
        {
          "internalType": "address",
          "name": "destinatario",
          "type": "address"
        },
        {
          "internalType": "uint256",
          "name": "quantidade",
          "type": "uint256"
        }
      ],
      "name": "adicionarSaldo",
      "outputs": [],
      "stateMutability": "nonpayable",
      "type": "function"
    },
    {
      "inputs": [
        {
          "internalType": "uint256",
          "name": "coordX",
          "type": "uint256"
        },
        {
          "internalType": "uint256",
          "name": "coordY",
          "type": "uint256"
        },
        {
          "internalType": "uint256",
          "name": "valor",
          "type": "uint256"
        },
        {
          "internalType": "uint256",
          "name": "estoque",
          "type": "uint256"
        }
      ],
      "name": "registrarPosto",
      "outputs": [
        {
          "internalType": "uint256",
          "name": "",
          "type": "uint256"
        }
      ],
      "stateMutability": "nonpayable",
      "type": "function"
    },
    {
      "inputs": [
        {
          "internalType": "uint256",
          "name": "coordXDoCliente",
          "type": "uint256"
        },
        {
          "internalType": "uint256",
          "name": "coordYDoCliente",
          "type": "uint256"
        },
        {
          "internalType": "uint256",
          "name": "raioDesejado",
          "type": "uint256"
        }
      ],
      "name": "localizarMelhorOferta",
      "outputs": [
        {
          "internalType": "uint256",
          "name": "",
          "type": "uint256"
        }
      ],
      "stateMutability": "nonpayable",
      "type": "function"
    },
    {
      "inputs": [
        {
          "internalType": "uint256",
          "name": "idPosto",
          "type": "uint256"
        },
        {
          "internalType": "uint256",
          "name": "quantidade",
          "type": "uint256"
        }
      ],
      "name": "reporEstoque",
      "outputs": [],
      "stateMutability": "nonpayable",
      "type": "function"
    },
    {
      "inputs": [
        {
          "internalType": "uint256",
          "name": "idPosto",
          "type": "uint256"
        },
        {
          "internalType": "uint256",
          "name": "quantidadeSolicitada",
          "type": "uint256"
        }
      ],
      "name": "comprarCombustivel",
      "outputs": [],
      "stateMutability": "nonpayable",
      "type": "function"
    }
  ],
  "bytecode": "0x608060405234801561001057600080fd5b5033600360006101000a81548173ffffffffffffffffffffffffffffffffffffffff021916908373ffffffffffffffffffffffffffffffffffffffff1602179055506112e5806100616000396000f3fe608060405234801561001057600080fd5b50600436106100935760003560e01c80638392d16b116100665780638392d16b14610123578063c68c061214610153578063e618104d14610183578063f5095045146101b3578063f525f95d146101d157610093565b8063041c797c146100985780630ca2f2a0146100b65780632ab50969146100d257806366e1d43314610107575b600080fd5b6100a06101ed565b6040516100ad9190610c6f565b60405180910390f35b6100d060048036038101906100cb9190610cc5565b610213565b005b6100ec60048036038101906100e79190610d05565b610321565b6040516100fe96959493929190610d41565b60405180910390f35b610121600480360381019061011c9190610cc5565b61037d565b005b61013d60048036038101906101389190610da2565b6107bc565b60405161014a9190610e09565b60405180910390f35b61016d60048036038101906101689190610e50565b6108ea565b60405161017a9190610e09565b60405180910390f35b61019d60048036038101906101989190610e7d565b610902565b6040516101aa9190610e09565b60405180910390f35b6101bb610a8f565b6040516101c89190610f60565b60405180910390f35b6101eb60048036038101906101e69190610f82565b610acc565b005b600360009054906101000a900473ffffffffffffffffffffffffffffffffffffffff1681565b6001600083815260200190815260200160002060050160009054906101000a900473ffffffffffffffffffffffffffffffffffffffff1673ffffffffffffffffffffffffffffffffffffffff163373ffffffffffffffffffffffffffffffffffffffff16146102b7576040517f08c379a00000000000000000000000000000000000000000000000000000000081526004016102ae90611034565b60405180910390fd5b806001600084815260200190815260200160002060040160008282546102dd9190611083565b925050819055507fb7ec46d77e79639d4745e674a036a722deeccdeb5ab6444f3d5554a616da039c33826040516103159291906110b7565b60405180910390a15050565b60016020528060005260406000206000915090508060000154908060010154908060020154908060030154908060040154908060050160009054906101000a900473ffffffffffffffffffffffffffffffffffffffff16905086565b80600160008481526020019081526020016000206004015410156103f0578060016000848152602001908152602001600020600401546040517fb78e5aee0000000000000000000000000000000000000000000000000000000081526004016103e79291906110e0565b60405180910390fd5b60008160016000858152602001908152602001600020600301546104149190611109565b905080600260003373ffffffffffffffffffffffffffffffffffffffff1673ffffffffffffffffffffffffffffffffffffffff1681526020019081526020016000205410156104db5780600260003373ffffffffffffffffffffffffffffffffffffffff1673ffffffffffffffffffffffffffffffffffffffff168152602001908152602001600020546040517f9d8b89ca0000000000000000000000000000000000000000000000000000000081526004016104d29291906110e0565b60405180910390fd5b81600160008581526020019081526020016000206004016000828254610501919061114b565b9250508190555080600260003373ffffffffffffffffffffffffffffffffffffffff1673ffffffffffffffffffffffffffffffffffffffff1681526020019081526020016000206000828254610557919061114b565b9250508190555080600260006001600087815260200190815260200160002060050160009054906101000a900473ffffffffffffffffffffffffffffffffffffffff1673ffffffffffffffffffffffffffffffffffffffff1673ffffffffffffffffffffffffffffffffffffffff16815260200190815260200160002060008282546105e39190611083565b925050819055507f98d2479ec7a19252e0538a6f611bb028391e148a7f574dff5fee951cfe1c80b66001600085815260200190815260200160002060050160009054906101000a900473ffffffffffffffffffffffffffffffffffffffff1683836040516106539392919061117f565b60405180910390a17f8db14d19f4aeace40c5d6356b107ac04877d1ae5f2b64202b17a86ed470b438a33600260003373ffffffffffffffffffffffffffffffffffffffff1673ffffffffffffffffffffffffffffffffffffffff168152602001908152602001600020546040516106cb9291906110b7565b60405180910390a17f8db14d19f4aeace40c5d6356b107ac04877d1ae5f2b64202b17a86ed470b438a6001600085815260200190815260200160002060050160009054906101000a900473ffffffffffffffffffffffffffffffffffffffff16600260006001600088815260200190815260200160002060050160009054906101000a900473ffffffffffffffffffffffffffffffffffffffff1673ffffffffffffffffffffffffffffffffffffffff1673ffffffffffffffffffffffffffffffffffffffff168152602001908152602001600020546040516107af9291906110b7565b60405180910390a1505050565b60008060008081546107cd906111b6565b91905081905590506040518060c001604052808281526020018781526020018681526020018581526020018481526020013373ffffffffffffffffffffffffffffffffffffffff1681525060016000838152602001908152602001600020600082015181600001556020820151816001015560408201518160020155606082015181600301556080820151816004015560a08201518160050160006101000a81548173ffffffffffffffffffffffffffffffffffffffff021916908373ffffffffffffffffffffffffffffffffffffffff1602179055509050507f5d52b01640c0753f887e0270136d5888b6d6eacfc6f26409c9459b3b5c040a69816040516108d69190610e09565b60405180910390a180915050949350505050565b60026020528060005260406000206000915090505481565b60008060009050600080600190505b6000548111610a0f57600087600160008481526020019081526020016000206001015461093e919061114b565b90506000876001600085815260200190815260200160002060020154610964919061114b565b905086876109729190611109565b818261097e9190611109565b838461098a9190611109565b6109949190611083565b111580156109c2575060008514806109c15750600160008481526020019081526020016000206003015484115b5b156109fa5760016000848152602001908152602001600020600001549450600160008481526020019081526020016000206003015493505b50508080610a07906111b6565b915050610911565b507f1f50b284eb2d4250fb5c962376fb6aa670422a12307c2ccfff27950e3209ecd83383836001600087815260200190815260200160002060050160009054906101000a900473ffffffffffffffffffffffffffffffffffffffff16604051610a7b94939291906111fe565b60405180910390a181925050509392505050565b60606040518060400160405280600b81526020017f4f6c612c206d756e646f21000000000000000000000000000000000000000000815250905090565b600360009054906101000a900473ffffffffffffffffffffffffffffffffffffffff1673ffffffffffffffffffffffffffffffffffffffff163373ffffffffffffffffffffffffffffffffffffffff1614610b5c576040517f08c379a0000000000000000000000000000000000000000000000000000000008152600401610b539061128f565b60405180910390fd5b80600260008473ffffffffffffffffffffffffffffffffffffffff1673ffffffffffffffffffffffffffffffffffffffff1681526020019081526020016000206000828254610bab9190611083565b925050819055507f8db14d19f4aeace40c5d6356b107ac04877d1ae5f2b64202b17a86ed470b438a82600260008573ffffffffffffffffffffffffffffffffffffffff1673ffffffffffffffffffffffffffffffffffffffff16815260200190815260200160002054604051610c229291906110b7565b60405180910390a15050565b600073ffffffffffffffffffffffffffffffffffffffff82169050919050565b6000610c5982610c2e565b9050919050565b610c6981610c4e565b82525050565b6000602082019050610c846000830184610c60565b92915050565b600080fd5b6000819050919050565b610ca281610c8f565b8114610cad57600080fd5b50565b600081359050610cbf81610c99565b92915050565b60008060408385031215610cdc57610cdb610c8a565b5b6000610cea85828601610cb0565b9250506020610cfb85828601610cb0565b9150509250929050565b600060208284031215610d1b57610d1a610c8a565b5b6000610d2984828501610cb0565b91505092915050565b610d3b81610c8f565b82525050565b600060c082019050610d566000830189610d32565b610d636020830188610d32565b610d706040830187610d32565b610d7d6060830186610d32565b610d8a6080830185610d32565b610d9760a0830184610c60565b979650505050505050565b60008060008060808587031215610dbc57610dbb610c8a565b5b6000610dca87828801610cb0565b9450506020610ddb87828801610cb0565b9350506040610dec87828801610cb0565b9250506060610dfd87828801610cb0565b91505092959194509250565b6000602082019050610e1e6000830184610d32565b92915050565b610e2d81610c4e565b8114610e3857600080fd5b50565b600081359050610e4a81610e24565b92915050565b600060208284031215610e6657610e65610c8a565b5b6000610e7484828501610e3b565b91505092915050565b600080600060608486031215610e9657610e95610c8a565b5b6000610ea486828701610cb0565b9350506020610eb586828701610cb0565b9250506040610ec686828701610cb0565b9150509250925092565b600081519050919050565b600082825260208201905092915050565b60005b83811015610f0a578082015181840152602081019050610eef565b60008484015250505050565b6000601f19601f8301169050919050565b6000610f3282610ed0565b610f3c8185610edb565b9350610f4c818560208601610eec565b610f5581610f16565b840191505092915050565b60006020820190508181036000830152610f7a8184610f27565b905092915050565b60008060408385031215610f9957610f98610c8a565b5b6000610fa785828601610e3b565b9250506020610fb885828601610cb0565b9150509250929050565b7f66756e63696f6e616c69646164652061636573736976656c206170656e61732060008201527f616f20706f73746f000000000000000000000000000000000000000000000000602082015250565b600061101e602883610edb565b915061102982610fc2565b604082019050919050565b6000602082019050818103600083015261104d81611011565b9050919050565b7f4e487b7100000000000000000000000000000000000000000000000000000000600052601160045260246000fd5b600061108e82610c8f565b915061109983610c8f565b92508282019050808211156110b1576110b0611054565b5b92915050565b60006040820190506110cc6000830185610c60565b6110d96020830184610d32565b9392505050565b60006040820190506110f56000830185610d32565b6111026020830184610d32565b9392505050565b600061111482610c8f565b915061111f83610c8f565b925082820261112d81610c8f565b9150828204841483151761114457611143611054565b5b5092915050565b600061115682610c8f565b915061116183610c8f565b925082820390508181111561117957611178611054565b5b92915050565b60006060820190506111946000830186610c60565b6111a16020830185610d32565b6111ae6040830184610d32565b949350505050565b60006111c182610c8f565b91507fffffffffffffffffffffffffffffffffffffffffffffffffffffffffffffffff82036111f3576111f2611054565b5b600182019050919050565b60006080820190506112136000830187610c60565b6112206020830186610d32565b61122d6040830185610d32565b61123a6060830184610c60565b95945050505050565b7f6170656e61732063726961646f72000000000000000000000000000000000000600082015250565b6000611279600e83610edb565b915061128482611243565b602082019050919050565b600060208201905081810360008301526112a88161126c565b905091905056fea2646970667358221220ef29ccaff3cb253dd4242477a5b990a6d544b987aea578d645b3ab0f9dc528f664736f6c63430008110033",
  "immutableReferences": {},
  "source": "// SPDX-License-Identifier: MIT\npragma solidity >=0.4.22 <0.9.0;\n\ncontract RedePostos {\n  struct Posto {\n    uint id;\n    uint coordX;\n    uint coordY;\n    uint valor;       // em centavos, por mililitro\n    uint estoque;     // em mililitros\n    address endereco;\n  }\n\n  uint numeroPostos;\n  mapping(uint => Posto) public postos;\n  mapping(address => uint) public saldos;\n  address public criador;\n\n  error EstoqueInsuficiente(uint quantidadeSolicitada, uint quantidadeDisponivel);\n  error SaldoInsuficiente(uint saldoNecessario, uint saldoDisponivel);\n\n  event AbastecimentoLiberado(address enderecoPosto, uint quantidadeLiberada, uint valorTotal);\n  event MelhorOfertaEncontrada(address enderecoCliente, uint idMelhorPosto, uint melhorValor, address enderecoPosto);\n  event EstoqueReposto(address enderecoPosto, uint quantidadeReposta);\n  event NovoSaldo (address destinatario, uint quantidade);\n  event NovoIdDePosto (uint id);\n\n  constructor() {\n      criador = msg.sender;\n  }\n\n  function digaOla() public pure returns (string memory) {\n      return \"Ola, mundo!\";\n  }\n\n  function adicionarSaldo(address destinatario, uint quantidade) public {\n      require(msg.sender == criador, \"apenas criador\");\n      saldos[destinatario] += quantidade;\n      emit NovoSaldo(destinatario, saldos[destinatario]);\n  }\n\n  function registrarPosto(uint coordX, uint coordY, uint valor, uint estoque) public returns(uint) {\n    uint novoIdDePosto = ++numeroPostos;\n\n    postos[novoIdDePosto] = Posto(\n        novoIdDePosto,\n        coordX,\n        coordY,\n        valor,\n        estoque,\n        msg.sender\n    );\n\n    emit NovoIdDePosto(novoIdDePosto);\n    return novoIdDePosto;\n}\n\n  function localizarMelhorOferta(uint coordXDoCliente, uint coordYDoCliente, uint raioDesejado) public returns(uint) {\n    uint idMelhorPosto = 0;\n    uint melhorValor = 0;\n\n    for (uint i = 1; i <= numeroPostos; i++) {\n        uint dx = postos[i].coordX - coordXDoCliente;\n        uint dy = postos[i].coordY - coordYDoCliente;\n        if (dx * dx + dy * dy <= raioDesejado * raioDesejado &&\n            (idMelhorPosto == 0 || melhorValor > postos[i].valor)) {\n                idMelhorPosto = postos[i].id;\n                melhorValor = postos[i].valor;\n        }\n    }\n\n    emit MelhorOfertaEncontrada(msg.sender, idMelhorPosto, melhorValor, postos[idMelhorPosto].endereco);\n\n    return idMelhorPosto;\n  }\n\n  function reporEstoque(uint idPosto, uint quantidade) public {\n      require(msg.sender == postos[idPosto].endereco, \"funcionalidade acessivel apenas ao posto\");\n      postos[idPosto].estoque += quantidade;\n\n      emit EstoqueReposto(msg.sender, quantidade);\n  }\n\n  function comprarCombustivel(uint idPosto, uint quantidadeSolicitada) public {\n    if (postos[idPosto].estoque < quantidadeSolicitada) {\n      revert EstoqueInsuficiente({\n          quantidadeSolicitada: quantidadeSolicitada,\n          quantidadeDisponivel: postos[idPosto].estoque\n      });\n    }\n\n    uint valorTotal = postos[idPosto].valor * quantidadeSolicitada;\n\n    if (saldos[msg.sender] < valorTotal) {\n      revert SaldoInsuficiente({\n          saldoNecessario: valorTotal,\n          saldoDisponivel: saldos[msg.sender]\n      });\n    }\n\n    postos[idPosto].estoque -= quantidadeSolicitada;\n    saldos[msg.sender] -= valorTotal;\n    saldos[postos[idPosto].endereco] += valorTotal;\n\n    // Liberar abastecimento\n    emit AbastecimentoLiberado(postos[idPosto].endereco, quantidadeSolicitada, valorTotal);\n    emit NovoSaldo(msg.sender, saldos[msg.sender]);\n    emit NovoSaldo(postos[idPosto].endereco, saldos[postos[idPosto].endereco]);\n  }\n\n}\n",
  "sourcePath": "/home/filipe/smart-postos/contracts/RedePostos.sol",
  "compiler": {
    "name": "solc",
    "version": "0.8.17+commit.8df45f5f.Emscripten.clang"
  },
  "schemaVersion": "3.4.10",
  "updatedAt": "2022-12-07T12:47:49.112Z",
  "networkType": "ethereum",
  "devdoc": {
    "kind": "dev",
    "methods": {},
    "version": 1
  },
  "userdoc": {
    "kind": "user",
    "methods": {},
    "version": 1
  }
}